{
  "_format": "hh-sol-artifact-1",
  "contractName": "TransferProxy",
  "sourceName": "contracts/TransferProxy.sol",
  "abi": [
    {
      "anonymous": false,
      "inputs": [
        {
          "indexed": true,
          "internalType": "address",
          "name": "previousOwner",
          "type": "address"
        },
        {
          "indexed": true,
          "internalType": "address",
          "name": "newOwner",
          "type": "address"
        }
      ],
      "name": "OwnershipTransferred",
      "type": "event"
    },
    {
      "inputs": [],
      "name": "accessAddr",
      "outputs": [
        {
          "internalType": "address",
          "name": "",
          "type": "address"
        }
      ],
      "stateMutability": "view",
      "type": "function"
    },
    {
      "inputs": [],
      "name": "owner",
      "outputs": [
        {
          "internalType": "address",
          "name": "",
          "type": "address"
        }
      ],
      "stateMutability": "view",
      "type": "function"
    },
    {
      "inputs": [],
      "name": "renounceOwnership",
      "outputs": [],
      "stateMutability": "nonpayable",
      "type": "function"
    },
    {
      "inputs": [
        {
          "internalType": "address",
          "name": "addr",
          "type": "address"
        }
      ],
      "name": "setAccessible",
      "outputs": [],
      "stateMutability": "nonpayable",
      "type": "function"
    },
    {
      "inputs": [
        {
          "internalType": "address",
          "name": "from",
          "type": "address"
        },
        {
          "internalType": "address",
          "name": "to",
          "type": "address"
        },
        {
          "components": [
            {
              "components": [
                {
                  "internalType": "enum LibAsset.AssetType",
                  "name": "baseType",
                  "type": "uint8"
                },
                {
                  "internalType": "uint256",
                  "name": "extraType",
                  "type": "uint256"
                },
                {
                  "internalType": "address",
                  "name": "contractAddr",
                  "type": "address"
                }
              ],
              "internalType": "struct LibAsset.Code",
              "name": "code",
              "type": "tuple"
            },
            {
              "internalType": "uint256",
              "name": "value",
              "type": "uint256"
            }
          ],
          "internalType": "struct LibAsset.BaseAsset",
          "name": "baseAsset",
          "type": "tuple"
        }
      ],
      "name": "transferFrom",
      "outputs": [],
      "stateMutability": "nonpayable",
      "type": "function"
    },
    {
      "inputs": [
        {
          "internalType": "address",
          "name": "newOwner",
          "type": "address"
        }
      ],
      "name": "transferOwnership",
      "outputs": [],
      "stateMutability": "nonpayable",
      "type": "function"
    }
  ],
  "bytecode": "0x608060405234801561001057600080fd5b5060006100216100c460201b60201c565b9050806000806101000a81548173ffffffffffffffffffffffffffffffffffffffff021916908373ffffffffffffffffffffffffffffffffffffffff1602179055508073ffffffffffffffffffffffffffffffffffffffff16600073ffffffffffffffffffffffffffffffffffffffff167f8be0079c531659141344cd1fd0a4f28419497f9722a3daafe3b4186f6b6457e060405160405180910390a3506100cc565b600033905090565b6114ae806100db6000396000f3fe608060405234801561001057600080fd5b50600436106100625760003560e01c80636fbcc5a514610067578063715018a614610083578063794ae4d11461008d5780638da5cb5b146100a9578063bcd4c0eb146100c7578063f2fde38b146100e5575b600080fd5b610081600480360381019061007c9190610cc0565b610101565b005b61008b6101a1565b005b6100a760048036038101906100a29190610c97565b6102db565b005b6100b161039b565b6040516100be9190610f02565b60405180910390f35b6100cf6103c4565b6040516100dc9190610f02565b60405180910390f35b6100ff60048036038101906100fa9190610c97565b6103ea565b005b3373ffffffffffffffffffffffffffffffffffffffff16600160009054906101000a900473ffffffffffffffffffffffffffffffffffffffff1673ffffffffffffffffffffffffffffffffffffffff1614610191576040517f08c379a00000000000000000000000000000000000000000000000000000000081526004016101889061108e565b60405180910390fd5b61019c838383610593565b505050565b6101a9610a9b565b73ffffffffffffffffffffffffffffffffffffffff166101c761039b565b73ffffffffffffffffffffffffffffffffffffffff161461021d576040517f08c379a00000000000000000000000000000000000000000000000000000000081526004016102149061106e565b60405180910390fd5b600073ffffffffffffffffffffffffffffffffffffffff1660008054906101000a900473ffffffffffffffffffffffffffffffffffffffff1673ffffffffffffffffffffffffffffffffffffffff167f8be0079c531659141344cd1fd0a4f28419497f9722a3daafe3b4186f6b6457e060405160405180910390a360008060006101000a81548173ffffffffffffffffffffffffffffffffffffffff021916908373ffffffffffffffffffffffffffffffffffffffff160217905550565b6102e3610a9b565b73ffffffffffffffffffffffffffffffffffffffff1661030161039b565b73ffffffffffffffffffffffffffffffffffffffff1614610357576040517f08c379a000000000000000000000000000000000000000000000000000000000815260040161034e9061106e565b60405180910390fd5b80600160006101000a81548173ffffffffffffffffffffffffffffffffffffffff021916908373ffffffffffffffffffffffffffffffffffffffff16021790555050565b60008060009054906101000a900473ffffffffffffffffffffffffffffffffffffffff16905090565b600160009054906101000a900473ffffffffffffffffffffffffffffffffffffffff1681565b6103f2610a9b565b73ffffffffffffffffffffffffffffffffffffffff1661041061039b565b73ffffffffffffffffffffffffffffffffffffffff1614610466576040517f08c379a000000000000000000000000000000000000000000000000000000000815260040161045d9061106e565b60405180910390fd5b600073ffffffffffffffffffffffffffffffffffffffff168173ffffffffffffffffffffffffffffffffffffffff1614156104d6576040517f08c379a00000000000000000000000000000000000000000000000000000000081526004016104cd90610fae565b60405180910390fd5b8073ffffffffffffffffffffffffffffffffffffffff1660008054906101000a900473ffffffffffffffffffffffffffffffffffffffff1673ffffffffffffffffffffffffffffffffffffffff167f8be0079c531659141344cd1fd0a4f28419497f9722a3daafe3b4186f6b6457e060405160405180910390a3806000806101000a81548173ffffffffffffffffffffffffffffffffffffffff021916908373ffffffffffffffffffffffffffffffffffffffff16021790555050565b600160048111156105cd577f4e487b7100000000000000000000000000000000000000000000000000000000600052602160045260246000fd5b816000015160000151600481111561060e577f4e487b7100000000000000000000000000000000000000000000000000000000600052602160045260246000fd5b14156106db578273ffffffffffffffffffffffffffffffffffffffff163373ffffffffffffffffffffffffffffffffffffffff1614610682576040517f08c379a000000000000000000000000000000000000000000000000000000000815260040161067990610fee565b60405180910390fd5b806020015134146106c8576040517f08c379a00000000000000000000000000000000000000000000000000000000081526004016106bf90610fce565b60405180910390fd5b6106d6828260200151610aa3565b610a96565b60026004811115610715577f4e487b7100000000000000000000000000000000000000000000000000000000600052602160045260246000fd5b8160000151600001516004811115610756577f4e487b7100000000000000000000000000000000000000000000000000000000600052602160045260246000fd5b14156107fd5780600001516040015173ffffffffffffffffffffffffffffffffffffffff166323b872dd848484602001516040518463ffffffff1660e01b81526004016107a593929190610f1d565b602060405180830381600087803b1580156107bf57600080fd5b505af11580156107d3573d6000803e3d6000fd5b505050506040513d601f19601f820116820180604052508101906107f79190610d0f565b50610a95565b60036004811115610837577f4e487b7100000000000000000000000000000000000000000000000000000000600052602160045260246000fd5b8160000151600001516004811115610878577f4e487b7100000000000000000000000000000000000000000000000000000000600052602160045260246000fd5b14156109495760018160200151146108c5576040517f08c379a00000000000000000000000000000000000000000000000000000000081526004016108bc9061104e565b60405180910390fd5b80600001516040015173ffffffffffffffffffffffffffffffffffffffff166323b872dd84848460000151602001516040518463ffffffff1660e01b815260040161091293929190610f1d565b600060405180830381600087803b15801561092c57600080fd5b505af1158015610940573d6000803e3d6000fd5b50505050610a94565b600480811115610982577f4e487b7100000000000000000000000000000000000000000000000000000000600052602160045260246000fd5b81600001516000015160048111156109c3577f4e487b7100000000000000000000000000000000000000000000000000000000600052602160045260246000fd5b1415610a5857606081600001516040015173ffffffffffffffffffffffffffffffffffffffff1663f242432a85858560000151602001518660200151866040518663ffffffff1660e01b8152600401610a20959493929190610f54565b600060405180830381600087803b158015610a3a57600080fd5b505af1158015610a4e573d6000803e3d6000fd5b5050505050610a93565b6040517f08c379a0000000000000000000000000000000000000000000000000000000008152600401610a8a906110ae565b60405180910390fd5b5b5b5b505050565b600033905090565b80471015610ae6576040517f08c379a0000000000000000000000000000000000000000000000000000000008152600401610add9061102e565b60405180910390fd5b60008273ffffffffffffffffffffffffffffffffffffffff1682604051610b0c90610eed565b60006040518083038185875af1925050503d8060008114610b49576040519150601f19603f3d011682016040523d82523d6000602084013e610b4e565b606091505b5050905080610b92576040517f08c379a0000000000000000000000000000000000000000000000000000000008152600401610b899061100e565b60405180910390fd5b505050565b600081359050610ba681611423565b92915050565b600081519050610bbb8161143a565b92915050565b600081359050610bd081611451565b92915050565b600060808284031215610be857600080fd5b610bf260406110ce565b90506000610c0284828501610c22565b6000830152506060610c1684828501610c82565b60208301525092915050565b600060608284031215610c3457600080fd5b610c3e60606110ce565b90506000610c4e84828501610bc1565b6000830152506020610c6284828501610c82565b6020830152506040610c7684828501610b97565b60408301525092915050565b600081359050610c9181611461565b92915050565b600060208284031215610ca957600080fd5b6000610cb784828501610b97565b91505092915050565b600080600060c08486031215610cd557600080fd5b6000610ce386828701610b97565b9350506020610cf486828701610b97565b9250506040610d0586828701610bd6565b9150509250925092565b600060208284031215610d2157600080fd5b6000610d2f84828501610bac565b91505092915050565b610d418161112b565b82525050565b6000610d52826110f3565b610d5c81856110fe565b9350610d6c818560208601611173565b610d7581611206565b840191505092915050565b6000610d8d60268361111a565b9150610d9882611217565b604082019050919050565b6000610db060228361111a565b9150610dbb82611266565b604082019050919050565b6000610dd360218361111a565b9150610dde826112b5565b604082019050919050565b6000610df6603a8361111a565b9150610e0182611304565b604082019050919050565b6000610e19601d8361111a565b9150610e2482611353565b602082019050919050565b6000610e3c601d8361111a565b9150610e478261137c565b602082019050919050565b6000610e5f60208361111a565b9150610e6a826113a5565b602082019050919050565b6000610e82601c8361111a565b9150610e8d826113ce565b602082019050919050565b6000610ea560008361110f565b9150610eb0826113f7565b600082019050919050565b6000610ec860208361111a565b9150610ed3826113fa565b602082019050919050565b610ee781611169565b82525050565b6000610ef882610e98565b9150819050919050565b6000602082019050610f176000830184610d38565b92915050565b6000606082019050610f326000830186610d38565b610f3f6020830185610d38565b610f4c6040830184610ede565b949350505050565b600060a082019050610f696000830188610d38565b610f766020830187610d38565b610f836040830186610ede565b610f906060830185610ede565b8181036080830152610fa28184610d47565b90509695505050505050565b60006020820190508181036000830152610fc781610d80565b9050919050565b60006020820190508181036000830152610fe781610da3565b9050919050565b6000602082019050818103600083015261100781610dc6565b9050919050565b6000602082019050818103600083015261102781610de9565b9050919050565b6000602082019050818103600083015261104781610e0c565b9050919050565b6000602082019050818103600083015261106781610e2f565b9050919050565b6000602082019050818103600083015261108781610e52565b9050919050565b600060208201905081810360008301526110a781610e75565b9050919050565b600060208201905081810360008301526110c781610ebb565b9050919050565b60006110d86110e9565b90506110e482826111a6565b919050565b6000604051905090565b600081519050919050565b600082825260208201905092915050565b600081905092915050565b600082825260208201905092915050565b600061113682611149565b9050919050565b60008115159050919050565b600073ffffffffffffffffffffffffffffffffffffffff82169050919050565b6000819050919050565b60005b83811015611191578082015181840152602081019050611176565b838111156111a0576000848401525b50505050565b6111af82611206565b810181811067ffffffffffffffff821117156111ce576111cd6111d7565b5b80604052505050565b7f4e487b7100000000000000000000000000000000000000000000000000000000600052604160045260246000fd5b6000601f19601f8301169050919050565b7f4f776e61626c653a206e6577206f776e657220697320746865207a65726f206160008201527f6464726573730000000000000000000000000000000000000000000000000000602082015250565b7f455448203a206d73672e76616c756520213d206261736541737365742e76616c60008201527f7565000000000000000000000000000000000000000000000000000000000000602082015250565b7f455448203a206d73672e73656e646572206973206e6f7420746865207061796560008201527f7200000000000000000000000000000000000000000000000000000000000000602082015250565b7f416464726573733a20756e61626c6520746f2073656e642076616c75652c207260008201527f6563697069656e74206d61792068617665207265766572746564000000000000602082015250565b7f416464726573733a20696e73756666696369656e742062616c616e6365000000600082015250565b7f455243373231203a206261736541737365742e76616c756520213d2031000000600082015250565b7f4f776e61626c653a2063616c6c6572206973206e6f7420746865206f776e6572600082015250565b7f4d73672073656e646572206973206e6f742061636365737369626c6500000000600082015250565b50565b7f6261736541737365742e636f64652e6261736554797065206973206572726f72600082015250565b61142c8161112b565b811461143757600080fd5b50565b6114438161113d565b811461144e57600080fd5b50565b6005811061145e57600080fd5b50565b61146a81611169565b811461147557600080fd5b5056fea264697066735822122091b9409580e616d739c6736df1ed1eb3835d0a4de9f573b6eb788a2131cc2efe64736f6c63430008030033",
  "linkReferences": {},
  "deployedLinkReferences": {}
}