{
  "_format": "hh-sol-artifact-1",
  "contractName": "Exchange",
  "sourceName": "contracts/Exchange.sol",
  "abi": [
    {
      "anonymous": false,
      "inputs": [
        {
          "indexed": true,
          "internalType": "address",
          "name": "previousOwner",
          "type": "address"
        },
        {
          "indexed": true,
          "internalType": "address",
          "name": "newOwner",
          "type": "address"
        }
      ],
      "name": "OwnershipTransferred",
      "type": "event"
    },
    {
      "inputs": [
        {
          "components": [
            {
              "internalType": "enum LibOrder.TradeDir",
              "name": "dir",
              "type": "uint8"
            },
            {
              "internalType": "address",
              "name": "maker",
              "type": "address"
            },
            {
              "components": [
                {
                  "internalType": "enum LibAsset.SettleType",
                  "name": "settleType",
                  "type": "uint8"
                },
                {
                  "components": [
                    {
                      "components": [
                        {
                          "internalType": "enum LibAsset.AssetType",
                          "name": "baseType",
                          "type": "uint8"
                        },
                        {
                          "internalType": "uint256",
                          "name": "extraType",
                          "type": "uint256"
                        },
                        {
                          "internalType": "address",
                          "name": "contractAddr",
                          "type": "address"
                        }
                      ],
                      "internalType": "struct LibAsset.Code",
                      "name": "code",
                      "type": "tuple"
                    },
                    {
                      "internalType": "uint256",
                      "name": "value",
                      "type": "uint256"
                    }
                  ],
                  "internalType": "struct LibAsset.BaseAsset",
                  "name": "baseAsset",
                  "type": "tuple"
                },
                {
                  "internalType": "uint256",
                  "name": "extraValue",
                  "type": "uint256"
                }
              ],
              "internalType": "struct LibAsset.Asset",
              "name": "makerAsset",
              "type": "tuple"
            },
            {
              "internalType": "address",
              "name": "taker",
              "type": "address"
            },
            {
              "components": [
                {
                  "internalType": "enum LibAsset.SettleType",
                  "name": "settleType",
                  "type": "uint8"
                },
                {
                  "components": [
                    {
                      "components": [
                        {
                          "internalType": "enum LibAsset.AssetType",
                          "name": "baseType",
                          "type": "uint8"
                        },
                        {
                          "internalType": "uint256",
                          "name": "extraType",
                          "type": "uint256"
                        },
                        {
                          "internalType": "address",
                          "name": "contractAddr",
                          "type": "address"
                        }
                      ],
                      "internalType": "struct LibAsset.Code",
                      "name": "code",
                      "type": "tuple"
                    },
                    {
                      "internalType": "uint256",
                      "name": "value",
                      "type": "uint256"
                    }
                  ],
                  "internalType": "struct LibAsset.BaseAsset",
                  "name": "baseAsset",
                  "type": "tuple"
                },
                {
                  "internalType": "uint256",
                  "name": "extraValue",
                  "type": "uint256"
                }
              ],
              "internalType": "struct LibAsset.Asset",
              "name": "takerAsset",
              "type": "tuple"
            },
            {
              "internalType": "uint256",
              "name": "fee",
              "type": "uint256"
            },
            {
              "internalType": "address",
              "name": "feeRecipient",
              "type": "address"
            },
            {
              "internalType": "uint256",
              "name": "startTime",
              "type": "uint256"
            },
            {
              "internalType": "uint256",
              "name": "endTime",
              "type": "uint256"
            },
            {
              "internalType": "uint256",
              "name": "salt",
              "type": "uint256"
            }
          ],
          "internalType": "struct LibOrder.Order",
          "name": "order",
          "type": "tuple"
        }
      ],
      "name": "cancelSingle",
      "outputs": [],
      "stateMutability": "nonpayable",
      "type": "function"
    },
    {
      "inputs": [
        {
          "components": [
            {
              "internalType": "enum LibOrder.TradeDir",
              "name": "dir",
              "type": "uint8"
            },
            {
              "internalType": "address",
              "name": "maker",
              "type": "address"
            },
            {
              "components": [
                {
                  "internalType": "enum LibAsset.SettleType",
                  "name": "settleType",
                  "type": "uint8"
                },
                {
                  "components": [
                    {
                      "components": [
                        {
                          "internalType": "enum LibAsset.AssetType",
                          "name": "baseType",
                          "type": "uint8"
                        },
                        {
                          "internalType": "uint256",
                          "name": "extraType",
                          "type": "uint256"
                        },
                        {
                          "internalType": "address",
                          "name": "contractAddr",
                          "type": "address"
                        }
                      ],
                      "internalType": "struct LibAsset.Code",
                      "name": "code",
                      "type": "tuple"
                    },
                    {
                      "internalType": "uint256",
                      "name": "value",
                      "type": "uint256"
                    }
                  ],
                  "internalType": "struct LibAsset.BaseAsset",
                  "name": "baseAsset",
                  "type": "tuple"
                },
                {
                  "internalType": "uint256",
                  "name": "extraValue",
                  "type": "uint256"
                }
              ],
              "internalType": "struct LibAsset.Asset",
              "name": "makerAsset",
              "type": "tuple"
            },
            {
              "internalType": "address",
              "name": "taker",
              "type": "address"
            },
            {
              "components": [
                {
                  "internalType": "enum LibAsset.SettleType",
                  "name": "settleType",
                  "type": "uint8"
                },
                {
                  "components": [
                    {
                      "components": [
                        {
                          "internalType": "enum LibAsset.AssetType",
                          "name": "baseType",
                          "type": "uint8"
                        },
                        {
                          "internalType": "uint256",
                          "name": "extraType",
                          "type": "uint256"
                        },
                        {
                          "internalType": "address",
                          "name": "contractAddr",
                          "type": "address"
                        }
                      ],
                      "internalType": "struct LibAsset.Code",
                      "name": "code",
                      "type": "tuple"
                    },
                    {
                      "internalType": "uint256",
                      "name": "value",
                      "type": "uint256"
                    }
                  ],
                  "internalType": "struct LibAsset.BaseAsset",
                  "name": "baseAsset",
                  "type": "tuple"
                },
                {
                  "internalType": "uint256",
                  "name": "extraValue",
                  "type": "uint256"
                }
              ],
              "internalType": "struct LibAsset.Asset",
              "name": "takerAsset",
              "type": "tuple"
            },
            {
              "internalType": "uint256",
              "name": "fee",
              "type": "uint256"
            },
            {
              "internalType": "address",
              "name": "feeRecipient",
              "type": "address"
            },
            {
              "internalType": "uint256",
              "name": "startTime",
              "type": "uint256"
            },
            {
              "internalType": "uint256",
              "name": "endTime",
              "type": "uint256"
            },
            {
              "internalType": "uint256",
              "name": "salt",
              "type": "uint256"
            }
          ],
          "internalType": "struct LibOrder.Order",
          "name": "order",
          "type": "tuple"
        }
      ],
      "name": "hashOrder",
      "outputs": [
        {
          "internalType": "bytes32",
          "name": "",
          "type": "bytes32"
        }
      ],
      "stateMutability": "pure",
      "type": "function"
    },
    {
      "inputs": [
        {
          "components": [
            {
              "internalType": "enum LibOrder.TradeDir",
              "name": "dir",
              "type": "uint8"
            },
            {
              "internalType": "address",
              "name": "maker",
              "type": "address"
            },
            {
              "components": [
                {
                  "internalType": "enum LibAsset.SettleType",
                  "name": "settleType",
                  "type": "uint8"
                },
                {
                  "components": [
                    {
                      "components": [
                        {
                          "internalType": "enum LibAsset.AssetType",
                          "name": "baseType",
                          "type": "uint8"
                        },
                        {
                          "internalType": "uint256",
                          "name": "extraType",
                          "type": "uint256"
                        },
                        {
                          "internalType": "address",
                          "name": "contractAddr",
                          "type": "address"
                        }
                      ],
                      "internalType": "struct LibAsset.Code",
                      "name": "code",
                      "type": "tuple"
                    },
                    {
                      "internalType": "uint256",
                      "name": "value",
                      "type": "uint256"
                    }
                  ],
                  "internalType": "struct LibAsset.BaseAsset",
                  "name": "baseAsset",
                  "type": "tuple"
                },
                {
                  "internalType": "uint256",
                  "name": "extraValue",
                  "type": "uint256"
                }
              ],
              "internalType": "struct LibAsset.Asset",
              "name": "makerAsset",
              "type": "tuple"
            },
            {
              "internalType": "address",
              "name": "taker",
              "type": "address"
            },
            {
              "components": [
                {
                  "internalType": "enum LibAsset.SettleType",
                  "name": "settleType",
                  "type": "uint8"
                },
                {
                  "components": [
                    {
                      "components": [
                        {
                          "internalType": "enum LibAsset.AssetType",
                          "name": "baseType",
                          "type": "uint8"
                        },
                        {
                          "internalType": "uint256",
                          "name": "extraType",
                          "type": "uint256"
                        },
                        {
                          "internalType": "address",
                          "name": "contractAddr",
                          "type": "address"
                        }
                      ],
                      "internalType": "struct LibAsset.Code",
                      "name": "code",
                      "type": "tuple"
                    },
                    {
                      "internalType": "uint256",
                      "name": "value",
                      "type": "uint256"
                    }
                  ],
                  "internalType": "struct LibAsset.BaseAsset",
                  "name": "baseAsset",
                  "type": "tuple"
                },
                {
                  "internalType": "uint256",
                  "name": "extraValue",
                  "type": "uint256"
                }
              ],
              "internalType": "struct LibAsset.Asset",
              "name": "takerAsset",
              "type": "tuple"
            },
            {
              "internalType": "uint256",
              "name": "fee",
              "type": "uint256"
            },
            {
              "internalType": "address",
              "name": "feeRecipient",
              "type": "address"
            },
            {
              "internalType": "uint256",
              "name": "startTime",
              "type": "uint256"
            },
            {
              "internalType": "uint256",
              "name": "endTime",
              "type": "uint256"
            },
            {
              "internalType": "uint256",
              "name": "salt",
              "type": "uint256"
            }
          ],
          "internalType": "struct LibOrder.Order",
          "name": "leftOrder",
          "type": "tuple"
        },
        {
          "internalType": "bytes",
          "name": "leftSign",
          "type": "bytes"
        },
        {
          "components": [
            {
              "internalType": "enum LibOrder.TradeDir",
              "name": "dir",
              "type": "uint8"
            },
            {
              "internalType": "address",
              "name": "maker",
              "type": "address"
            },
            {
              "components": [
                {
                  "internalType": "enum LibAsset.SettleType",
                  "name": "settleType",
                  "type": "uint8"
                },
                {
                  "components": [
                    {
                      "components": [
                        {
                          "internalType": "enum LibAsset.AssetType",
                          "name": "baseType",
                          "type": "uint8"
                        },
                        {
                          "internalType": "uint256",
                          "name": "extraType",
                          "type": "uint256"
                        },
                        {
                          "internalType": "address",
                          "name": "contractAddr",
                          "type": "address"
                        }
                      ],
                      "internalType": "struct LibAsset.Code",
                      "name": "code",
                      "type": "tuple"
                    },
                    {
                      "internalType": "uint256",
                      "name": "value",
                      "type": "uint256"
                    }
                  ],
                  "internalType": "struct LibAsset.BaseAsset",
                  "name": "baseAsset",
                  "type": "tuple"
                },
                {
                  "internalType": "uint256",
                  "name": "extraValue",
                  "type": "uint256"
                }
              ],
              "internalType": "struct LibAsset.Asset",
              "name": "makerAsset",
              "type": "tuple"
            },
            {
              "internalType": "address",
              "name": "taker",
              "type": "address"
            },
            {
              "components": [
                {
                  "internalType": "enum LibAsset.SettleType",
                  "name": "settleType",
                  "type": "uint8"
                },
                {
                  "components": [
                    {
                      "components": [
                        {
                          "internalType": "enum LibAsset.AssetType",
                          "name": "baseType",
                          "type": "uint8"
                        },
                        {
                          "internalType": "uint256",
                          "name": "extraType",
                          "type": "uint256"
                        },
                        {
                          "internalType": "address",
                          "name": "contractAddr",
                          "type": "address"
                        }
                      ],
                      "internalType": "struct LibAsset.Code",
                      "name": "code",
                      "type": "tuple"
                    },
                    {
                      "internalType": "uint256",
                      "name": "value",
                      "type": "uint256"
                    }
                  ],
                  "internalType": "struct LibAsset.BaseAsset",
                  "name": "baseAsset",
                  "type": "tuple"
                },
                {
                  "internalType": "uint256",
                  "name": "extraValue",
                  "type": "uint256"
                }
              ],
              "internalType": "struct LibAsset.Asset",
              "name": "takerAsset",
              "type": "tuple"
            },
            {
              "internalType": "uint256",
              "name": "fee",
              "type": "uint256"
            },
            {
              "internalType": "address",
              "name": "feeRecipient",
              "type": "address"
            },
            {
              "internalType": "uint256",
              "name": "startTime",
              "type": "uint256"
            },
            {
              "internalType": "uint256",
              "name": "endTime",
              "type": "uint256"
            },
            {
              "internalType": "uint256",
              "name": "salt",
              "type": "uint256"
            }
          ],
          "internalType": "struct LibOrder.Order",
          "name": "rightOrder",
          "type": "tuple"
        },
        {
          "internalType": "bytes",
          "name": "rightSign",
          "type": "bytes"
        }
      ],
      "name": "matchSingle",
      "outputs": [],
      "stateMutability": "payable",
      "type": "function"
    },
    {
      "inputs": [],
      "name": "owner",
      "outputs": [
        {
          "internalType": "address",
          "name": "",
          "type": "address"
        }
      ],
      "stateMutability": "view",
      "type": "function"
    },
    {
      "inputs": [],
      "name": "renounceOwnership",
      "outputs": [],
      "stateMutability": "nonpayable",
      "type": "function"
    },
    {
      "inputs": [
        {
          "internalType": "address",
          "name": "transferProxy",
          "type": "address"
        }
      ],
      "name": "setProxy",
      "outputs": [],
      "stateMutability": "nonpayable",
      "type": "function"
    },
    {
      "inputs": [
        {
          "internalType": "address",
          "name": "newOwner",
          "type": "address"
        }
      ],
      "name": "transferOwnership",
      "outputs": [],
      "stateMutability": "nonpayable",
      "type": "function"
    }
  ],
  "bytecode": "0x608060405234801561001057600080fd5b5060006100216100c460201b60201c565b9050806000806101000a81548173ffffffffffffffffffffffffffffffffffffffff021916908373ffffffffffffffffffffffffffffffffffffffff1602179055508073ffffffffffffffffffffffffffffffffffffffff16600073ffffffffffffffffffffffffffffffffffffffff167f8be0079c531659141344cd1fd0a4f28419497f9722a3daafe3b4186f6b6457e060405160405180910390a3506100cc565b600033905090565b61317280620000dc6000396000f3fe6080604052600436106100705760003560e01c806397107d6d1161004e57806397107d6d146100d3578063cbddae89146100fc578063dc42587914610139578063f2fde38b1461016257610070565b806335cb703314610075578063715018a6146100915780638da5cb5b146100a8575b600080fd5b61008f600480360381019061008a9190611da8565b61018b565b005b34801561009d57600080fd5b506100a66104ab565b005b3480156100b457600080fd5b506100bd6105e5565b6040516100ca919061233c565b60405180910390f35b3480156100df57600080fd5b506100fa60048036038101906100f59190611d2c565b61060e565b005b34801561010857600080fd5b50610123600480360381019061011e9190611d7e565b6106ce565b604051610130919061241f565b60405180910390f35b34801561014557600080fd5b50610160600480360381019061015b9190611d7e565b6106e0565b005b34801561016e57600080fd5b5061018960048036038101906101849190611d2c565b610783565b005b600060018111156101c5577f4e487b7100000000000000000000000000000000000000000000000000000000600052602160045260246000fd5b84600001516001811115610202577f4e487b7100000000000000000000000000000000000000000000000000000000600052602160045260246000fd5b1480156102825750600180811115610243577f4e487b7100000000000000000000000000000000000000000000000000000000600052602160045260246000fd5b82600001516001811115610280577f4e487b7100000000000000000000000000000000000000000000000000000000600052602160045260246000fd5b145b6102c1576040517f08c379a00000000000000000000000000000000000000000000000000000000081526004016102b8906125dc565b60405180910390fd5b6102ca8461092c565b1580156102dd57506102db8261092c565b155b61031c576040517f08c379a0000000000000000000000000000000000000000000000000000000008152600401610313906126dc565b60405180910390fd5b3373ffffffffffffffffffffffffffffffffffffffff16846020015173ffffffffffffffffffffffffffffffffffffffff16148061038957503373ffffffffffffffffffffffffffffffffffffffff16826020015173ffffffffffffffffffffffffffffffffffffffff16145b6103c8576040517f08c379a00000000000000000000000000000000000000000000000000000000081526004016103bf906126bc565b60405180910390fd5b6103d28484610963565b610411576040517f08c379a00000000000000000000000000000000000000000000000000000000081526004016104089061271c565b60405180910390fd5b61041b8282610963565b61045a576040517f08c379a0000000000000000000000000000000000000000000000000000000008152600401610451906127dc565b60405180910390fd5b60008061046786856109b1565b91509150610474866106e0565b61047d846106e0565b6104908660200151856020015184610c8e565b6104a38460200151876020015183610c8e565b505050505050565b6104b3610db6565b73ffffffffffffffffffffffffffffffffffffffff166104d16105e5565b73ffffffffffffffffffffffffffffffffffffffff1614610527576040517f08c379a000000000000000000000000000000000000000000000000000000000815260040161051e9061277c565b60405180910390fd5b600073ffffffffffffffffffffffffffffffffffffffff1660008054906101000a900473ffffffffffffffffffffffffffffffffffffffff1673ffffffffffffffffffffffffffffffffffffffff167f8be0079c531659141344cd1fd0a4f28419497f9722a3daafe3b4186f6b6457e060405160405180910390a360008060006101000a81548173ffffffffffffffffffffffffffffffffffffffff021916908373ffffffffffffffffffffffffffffffffffffffff160217905550565b60008060009054906101000a900473ffffffffffffffffffffffffffffffffffffffff16905090565b610616610db6565b73ffffffffffffffffffffffffffffffffffffffff166106346105e5565b73ffffffffffffffffffffffffffffffffffffffff161461068a576040517f08c379a00000000000000000000000000000000000000000000000000000000081526004016106819061277c565b60405180910390fd5b80600260006101000a81548173ffffffffffffffffffffffffffffffffffffffff021916908373ffffffffffffffffffffffffffffffffffffffff16021790555050565b60006106d982610dbe565b9050919050565b60006106eb82610dbe565b9050600015156001600083815260200190815260200160002060009054906101000a900460ff16151514610754576040517f08c379a000000000000000000000000000000000000000000000000000000000815260040161074b9061283c565b60405180910390fd5b600180600083815260200190815260200160002060006101000a81548160ff0219169083151502179055505050565b61078b610db6565b73ffffffffffffffffffffffffffffffffffffffff166107a96105e5565b73ffffffffffffffffffffffffffffffffffffffff16146107ff576040517f08c379a00000000000000000000000000000000000000000000000000000000081526004016107f69061277c565b60405180910390fd5b600073ffffffffffffffffffffffffffffffffffffffff168173ffffffffffffffffffffffffffffffffffffffff16141561086f576040517f08c379a0000000000000000000000000000000000000000000000000000000008152600401610866906125fc565b60405180910390fd5b8073ffffffffffffffffffffffffffffffffffffffff1660008054906101000a900473ffffffffffffffffffffffffffffffffffffffff1673ffffffffffffffffffffffffffffffffffffffff167f8be0079c531659141344cd1fd0a4f28419497f9722a3daafe3b4186f6b6457e060405160405180910390a3806000806101000a81548173ffffffffffffffffffffffffffffffffffffffff021916908373ffffffffffffffffffffffffffffffffffffffff16021790555050565b60008061093883610dbe565b90506001600082815260200190815260200160002060009054906101000a900460ff16915050919050565b600061097761097184610dbe565b83610e3a565b73ffffffffffffffffffffffffffffffffffffffff16836020015173ffffffffffffffffffffffffffffffffffffffff1614905092915050565b6109b96119b4565b6109c16119b4565b6109e38460400151602001516000015184608001516020015160000151610e79565b610a22576040517f08c379a0000000000000000000000000000000000000000000000000000000008152600401610a19906125bc565b60405180910390fd5b610a448460800151602001516000015184604001516020015160000151610e79565b610a83576040517f08c379a0000000000000000000000000000000000000000000000000000000008152600401610a7a906127fc565b60405180910390fd5b826060015173ffffffffffffffffffffffffffffffffffffffff16846020015173ffffffffffffffffffffffffffffffffffffffff161480610af55750600073ffffffffffffffffffffffffffffffffffffffff16836060015173ffffffffffffffffffffffffffffffffffffffff16145b610afe57600080fd5b836060015173ffffffffffffffffffffffffffffffffffffffff16836020015173ffffffffffffffffffffffffffffffffffffffff161480610b705750600073ffffffffffffffffffffffffffffffffffffffff16846060015173ffffffffffffffffffffffffffffffffffffffff16145b610b7957600080fd5b6000610b9385604001518660e00151876101000151610f61565b90506000610baf86608001518760e00151886101000151610f61565b90506000610bcb86604001518760e00151886101000151610f61565b90506000610be787608001518860e00151896101000151610f61565b90508060200151846020015114610c33576040517f08c379a0000000000000000000000000000000000000000000000000000000008152600401610c2a9061279c565b60405180910390fd5b8160200151836020015114610c7d576040517f08c379a0000000000000000000000000000000000000000000000000000000008152600401610c749061275c565b60405180910390fd5b838395509550505050509250929050565b60016004811115610cc8577f4e487b7100000000000000000000000000000000000000000000000000000000600052602160045260246000fd5b8160000151600001516004811115610d09577f4e487b7100000000000000000000000000000000000000000000000000000000600052602160045260246000fd5b1415610d1f57610d1a8383836110b3565b610db1565b600260009054906101000a900473ffffffffffffffffffffffffffffffffffffffff1673ffffffffffffffffffffffffffffffffffffffff16636fbcc5a58484846040518463ffffffff1660e01b8152600401610d7e93929190612357565b600060405180830381600087803b158015610d9857600080fd5b505af1158015610dac573d6000803e3d6000fd5b505050505b505050565b600033905090565b600081600001518260200151610dd784604001516115bb565b8460600151610de986608001516115bb565b8660a001518760c001518860e001518961010001518a6101200151604051602001610e1d9a999897969594939291906124e0565b604051602081830303815290604052805190602001209050919050565b600080610e6d84604051602001610e519190612301565b6040516020818303038152906040528051906020012084611629565b90508091505092915050565b600081600001516004811115610eb8577f4e487b7100000000000000000000000000000000000000000000000000000000600052602160045260246000fd5b83600001516004811115610ef5577f4e487b7100000000000000000000000000000000000000000000000000000000600052602160045260246000fd5b148015610f09575081602001518360200151145b8015610f485750816040015173ffffffffffffffffffffffffffffffffffffffff16836040015173ffffffffffffffffffffffffffffffffffffffff16145b15610f565760019050610f5b565b600090505b92915050565b610f696119b4565b6000604051806040016040528086602001516000015181526020018660200151602001518152509050600180811115610fcb577f4e487b7100000000000000000000000000000000000000000000000000000000600052602160045260246000fd5b85600001516001811115611008577f4e487b7100000000000000000000000000000000000000000000000000000000600052602160045260246000fd5b14156110a85782421115611051576040517f08c379a00000000000000000000000000000000000000000000000000000000081526004016110489061281c565b60405180910390fd5b600061108d61107e61106342886116f3565b6110798960200151602001518a604001516116f3565b611709565b61108886886116f3565b61171f565b905061109d8260200151826116f3565b826020018181525050505b809150509392505050565b600160048111156110ed577f4e487b7100000000000000000000000000000000000000000000000000000000600052602160045260246000fd5b816000015160000151600481111561112e577f4e487b7100000000000000000000000000000000000000000000000000000000600052602160045260246000fd5b14156111fb578273ffffffffffffffffffffffffffffffffffffffff163373ffffffffffffffffffffffffffffffffffffffff16146111a2576040517f08c379a00000000000000000000000000000000000000000000000000000000081526004016111999061263c565b60405180910390fd5b806020015134146111e8576040517f08c379a00000000000000000000000000000000000000000000000000000000081526004016111df9061261c565b60405180910390fd5b6111f6828260200151611735565b6115b6565b60026004811115611235577f4e487b7100000000000000000000000000000000000000000000000000000000600052602160045260246000fd5b8160000151600001516004811115611276577f4e487b7100000000000000000000000000000000000000000000000000000000600052602160045260246000fd5b141561131d5780600001516040015173ffffffffffffffffffffffffffffffffffffffff166323b872dd848484602001516040518463ffffffff1660e01b81526004016112c59392919061238e565b602060405180830381600087803b1580156112df57600080fd5b505af11580156112f3573d6000803e3d6000fd5b505050506040513d601f19601f820116820180604052508101906113179190611d55565b506115b5565b60036004811115611357577f4e487b7100000000000000000000000000000000000000000000000000000000600052602160045260246000fd5b8160000151600001516004811115611398577f4e487b7100000000000000000000000000000000000000000000000000000000600052602160045260246000fd5b14156114695760018160200151146113e5576040517f08c379a00000000000000000000000000000000000000000000000000000000081526004016113dc9061273c565b60405180910390fd5b80600001516040015173ffffffffffffffffffffffffffffffffffffffff166323b872dd84848460000151602001516040518463ffffffff1660e01b81526004016114329392919061238e565b600060405180830381600087803b15801561144c57600080fd5b505af1158015611460573d6000803e3d6000fd5b505050506115b4565b6004808111156114a2577f4e487b7100000000000000000000000000000000000000000000000000000000600052602160045260246000fd5b81600001516000015160048111156114e3577f4e487b7100000000000000000000000000000000000000000000000000000000600052602160045260246000fd5b141561157857606081600001516040015173ffffffffffffffffffffffffffffffffffffffff1663f242432a85858560000151602001518660200151866040518663ffffffff1660e01b81526004016115409594939291906123c5565b600060405180830381600087803b15801561155a57600080fd5b505af115801561156e573d6000803e3d6000fd5b50505050506115b3565b6040517f08c379a00000000000000000000000000000000000000000000000000000000081526004016115aa906127bc565b60405180910390fd5b5b5b5b505050565b60008160000151826020015160000151600001518360200151600001516020015184602001516000015160400151856020015160200151866040015160405160200161160c9695949392919061247f565b604051602081830303815290604052805190602001209050919050565b600080600080604185511415611656576020850151925060408501519150606085015160001a90506116dc565b6040855114156116a0576040850151602086015193507f7fffffffffffffffffffffffffffffffffffffffffffffffffffffffffffffff81169250601b8160ff1c019150506116db565b6040517f08c379a00000000000000000000000000000000000000000000000000000000081526004016116d29061259c565b60405180910390fd5b5b6116e886828585611829565b935050505092915050565b600081836117019190612980565b905092915050565b600081836117179190612926565b905092915050565b6000818361172d91906128f5565b905092915050565b80471015611778576040517f08c379a000000000000000000000000000000000000000000000000000000000815260040161176f9061269c565b60405180910390fd5b60008273ffffffffffffffffffffffffffffffffffffffff168260405161179e90612327565b60006040518083038185875af1925050503d80600081146117db576040519150601f19603f3d011682016040523d82523d6000602084013e6117e0565b606091505b5050905080611824576040517f08c379a000000000000000000000000000000000000000000000000000000000815260040161181b9061265c565b60405180910390fd5b505050565b60007f7fffffffffffffffffffffffffffffff5d576e7357a4501ddfe92f46681b20a08260001c1115611891576040517f08c379a00000000000000000000000000000000000000000000000000000000081526004016118889061267c565b60405180910390fd5b601b8460ff1614806118a65750601c8460ff16145b6118e5576040517f08c379a00000000000000000000000000000000000000000000000000000000081526004016118dc906126fc565b60405180910390fd5b60006001868686866040516000815260200160405260405161190a949392919061243a565b6020604051602081039080840390855afa15801561192c573d6000803e3d6000fd5b505050602060405103519050600073ffffffffffffffffffffffffffffffffffffffff168173ffffffffffffffffffffffffffffffffffffffff1614156119a8576040517f08c379a000000000000000000000000000000000000000000000000000000000815260040161199f9061257c565b60405180910390fd5b80915050949350505050565b60405180604001604052806119c76119d4565b8152602001600081525090565b604051806060016040528060006004811115611a19577f4e487b7100000000000000000000000000000000000000000000000000000000600052602160045260246000fd5b815260200160008152602001600073ffffffffffffffffffffffffffffffffffffffff1681525090565b6000611a56611a5184612881565b61285c565b905082815260208101848484011115611a6e57600080fd5b611a79848285612a82565b509392505050565b600081359050611a90816130c7565b92915050565b600081519050611aa5816130de565b92915050565b600082601f830112611abc57600080fd5b8135611acc848260208601611a43565b91505092915050565b600081359050611ae4816130f5565b92915050565b600081359050611af981613105565b92915050565b600081359050611b0e81613115565b92915050565b600060c08284031215611b2657600080fd5b611b30606061285c565b90506000611b4084828501611aea565b6000830152506020611b5484828501611b74565b60208301525060a0611b6884828501611d17565b60408301525092915050565b600060808284031215611b8657600080fd5b611b90604061285c565b90506000611ba084828501611bc0565b6000830152506060611bb484828501611d17565b60208301525092915050565b600060608284031215611bd257600080fd5b611bdc606061285c565b90506000611bec84828501611ad5565b6000830152506020611c0084828501611d17565b6020830152506040611c1484828501611a81565b60408301525092915050565b60006102808284031215611c3357600080fd5b611c3e61014061285c565b90506000611c4e84828501611aff565b6000830152506020611c6284828501611a81565b6020830152506040611c7684828501611b14565b604083015250610100611c8b84828501611a81565b606083015250610120611ca084828501611b14565b6080830152506101e0611cb584828501611d17565b60a083015250610200611cca84828501611a81565b60c083015250610220611cdf84828501611d17565b60e083015250610240611cf484828501611d17565b61010083015250610260611d0a84828501611d17565b6101208301525092915050565b600081359050611d2681613125565b92915050565b600060208284031215611d3e57600080fd5b6000611d4c84828501611a81565b91505092915050565b600060208284031215611d6757600080fd5b6000611d7584828501611a96565b91505092915050565b60006102808284031215611d9157600080fd5b6000611d9f84828501611c20565b91505092915050565b6000806000806105408587031215611dbf57600080fd5b6000611dcd87828801611c20565b94505061028085013567ffffffffffffffff811115611deb57600080fd5b611df787828801611aab565b9350506102a0611e0987828801611c20565b92505061052085013567ffffffffffffffff811115611e2757600080fd5b611e3387828801611aab565b91505092959194509250565b611e48816129b4565b82525050565b611e57816129b4565b82525050565b611e66816129d2565b82525050565b611e7d611e78826129d2565b612af5565b82525050565b6000611e8e826128b2565b611e9881856128bd565b9350611ea8818560208601612a91565b611eb181612bbb565b840191505092915050565b611ec581612a4c565b82525050565b611ed481612a4c565b82525050565b611ee381612a5e565b82525050565b611ef281612a70565b82525050565b6000611f056018836128d9565b9150611f1082612bcc565b602082019050919050565b6000611f28601f836128d9565b9150611f3382612bf5565b602082019050919050565b6000611f4b601c836128ea565b9150611f5682612c1e565b601c82019050919050565b6000611f6e601d836128d9565b9150611f7982612c47565b602082019050919050565b6000611f91601a836128d9565b9150611f9c82612c70565b602082019050919050565b6000611fb46026836128d9565b9150611fbf82612c99565b604082019050919050565b6000611fd76022836128d9565b9150611fe282612ce8565b604082019050919050565b6000611ffa6021836128d9565b915061200582612d37565b604082019050919050565b600061201d603a836128d9565b915061202882612d86565b604082019050919050565b60006120406022836128d9565b915061204b82612dd5565b604082019050919050565b6000612063601d836128d9565b915061206e82612e24565b602082019050919050565b60006120866015836128d9565b915061209182612e4d565b602082019050919050565b60006120a96011836128d9565b91506120b482612e76565b602082019050919050565b60006120cc6022836128d9565b91506120d782612e9f565b604082019050919050565b60006120ef6015836128d9565b91506120fa82612eee565b602082019050919050565b6000612112601d836128d9565b915061211d82612f17565b602082019050919050565b6000612135601e836128d9565b915061214082612f40565b602082019050919050565b60006121586020836128d9565b915061216382612f69565b602082019050919050565b600061217b601e836128d9565b915061218682612f92565b602082019050919050565b600061219e6000836128ce565b91506121a982612fbb565b600082019050919050565b60006121c16020836128d9565b91506121cc82612fbe565b602082019050919050565b60006121e46016836128d9565b91506121ef82612fe7565b602082019050919050565b6000612207601d836128d9565b915061221282613010565b602082019050919050565b600061222a6017836128d9565b915061223582613039565b602082019050919050565b600061224d601b836128d9565b915061225882613062565b602082019050919050565b6080820160008201516122796000850182612292565b50602082015161228c60608501826122d4565b50505050565b6060820160008201516122a86000850182611ebc565b5060208201516122bb60208501826122d4565b5060408201516122ce6040850182611e3f565b50505050565b6122dd81612a35565b82525050565b6122ec81612a35565b82525050565b6122fb81612a3f565b82525050565b600061230c82611f3e565b91506123188284611e6c565b60208201915081905092915050565b600061233282612191565b9150819050919050565b60006020820190506123516000830184611e4e565b92915050565b600060c08201905061236c6000830186611e4e565b6123796020830185611e4e565b6123866040830184612263565b949350505050565b60006060820190506123a36000830186611e4e565b6123b06020830185611e4e565b6123bd60408301846122e3565b949350505050565b600060a0820190506123da6000830188611e4e565b6123e76020830187611e4e565b6123f460408301866122e3565b61240160608301856122e3565b81810360808301526124138184611e83565b90509695505050505050565b60006020820190506124346000830184611e5d565b92915050565b600060808201905061244f6000830187611e5d565b61245c60208301866122f2565b6124696040830185611e5d565b6124766060830184611e5d565b95945050505050565b600060c0820190506124946000830189611eda565b6124a16020830188611ecb565b6124ae60408301876122e3565b6124bb6060830186611e4e565b6124c860808301856122e3565b6124d560a08301846122e3565b979650505050505050565b6000610140820190506124f6600083018d611ee9565b612503602083018c611e4e565b612510604083018b611e5d565b61251d606083018a611e4e565b61252a6080830189611e5d565b61253760a08301886122e3565b61254460c0830187611e4e565b61255160e08301866122e3565b61255f6101008301856122e3565b61256d6101208301846122e3565b9b9a5050505050505050505050565b6000602082019050818103600083015261259581611ef8565b9050919050565b600060208201905081810360008301526125b581611f1b565b9050919050565b600060208201905081810360008301526125d581611f61565b9050919050565b600060208201905081810360008301526125f581611f84565b9050919050565b6000602082019050818103600083015261261581611fa7565b9050919050565b6000602082019050818103600083015261263581611fca565b9050919050565b6000602082019050818103600083015261265581611fed565b9050919050565b6000602082019050818103600083015261267581612010565b9050919050565b6000602082019050818103600083015261269581612033565b9050919050565b600060208201905081810360008301526126b581612056565b9050919050565b600060208201905081810360008301526126d581612079565b9050919050565b600060208201905081810360008301526126f58161209c565b9050919050565b60006020820190508181036000830152612715816120bf565b9050919050565b60006020820190508181036000830152612735816120e2565b9050919050565b6000602082019050818103600083015261275581612105565b9050919050565b6000602082019050818103600083015261277581612128565b9050919050565b600060208201905081810360008301526127958161214b565b9050919050565b600060208201905081810360008301526127b58161216e565b9050919050565b600060208201905081810360008301526127d5816121b4565b9050919050565b600060208201905081810360008301526127f5816121d7565b9050919050565b60006020820190508181036000830152612815816121fa565b9050919050565b600060208201905081810360008301526128358161221d565b9050919050565b6000602082019050818103600083015261285581612240565b9050919050565b6000612866612877565b90506128728282612ac4565b919050565b6000604051905090565b600067ffffffffffffffff82111561289c5761289b612b8c565b5b6128a582612bbb565b9050602081019050919050565b600081519050919050565b600082825260208201905092915050565b600081905092915050565b600082825260208201905092915050565b600081905092915050565b600061290082612a35565b915061290b83612a35565b92508261291b5761291a612b2e565b5b828204905092915050565b600061293182612a35565b915061293c83612a35565b9250817fffffffffffffffffffffffffffffffffffffffffffffffffffffffffffffffff048311821515161561297557612974612aff565b5b828202905092915050565b600061298b82612a35565b915061299683612a35565b9250828210156129a9576129a8612aff565b5b828203905092915050565b60006129bf82612a15565b9050919050565b60008115159050919050565b6000819050919050565b60008190506129ea8261308b565b919050565b60008190506129fd8261309f565b919050565b6000819050612a10826130b3565b919050565b600073ffffffffffffffffffffffffffffffffffffffff82169050919050565b6000819050919050565b600060ff82169050919050565b6000612a57826129dc565b9050919050565b6000612a69826129ef565b9050919050565b6000612a7b82612a02565b9050919050565b82818337600083830152505050565b60005b83811015612aaf578082015181840152602081019050612a94565b83811115612abe576000848401525b50505050565b612acd82612bbb565b810181811067ffffffffffffffff82111715612aec57612aeb612b8c565b5b80604052505050565b6000819050919050565b7f4e487b7100000000000000000000000000000000000000000000000000000000600052601160045260246000fd5b7f4e487b7100000000000000000000000000000000000000000000000000000000600052601260045260246000fd5b7f4e487b7100000000000000000000000000000000000000000000000000000000600052602160045260246000fd5b7f4e487b7100000000000000000000000000000000000000000000000000000000600052604160045260246000fd5b6000601f19601f8301169050919050565b7f45434453413a20696e76616c6964207369676e61747572650000000000000000600082015250565b7f45434453413a20696e76616c6964207369676e6174757265206c656e67746800600082015250565b7f19457468657265756d205369676e6564204d6573736167653a0a333200000000600082015250565b7f4d616b657220617373657420636f6465206973206e6f74206d61746368000000600082015250565b7f747261646520646972656374696f6e20697320696e76616c6964000000000000600082015250565b7f4f776e61626c653a206e6577206f776e657220697320746865207a65726f206160008201527f6464726573730000000000000000000000000000000000000000000000000000602082015250565b7f455448203a206d73672e76616c756520213d206261736541737365742e76616c60008201527f7565000000000000000000000000000000000000000000000000000000000000602082015250565b7f455448203a206d73672e73656e646572206973206e6f7420746865207061796560008201527f7200000000000000000000000000000000000000000000000000000000000000602082015250565b7f416464726573733a20756e61626c6520746f2073656e642076616c75652c207260008201527f6563697069656e74206d61792068617665207265766572746564000000000000602082015250565b7f45434453413a20696e76616c6964207369676e6174757265202773272076616c60008201527f7565000000000000000000000000000000000000000000000000000000000000602082015250565b7f416464726573733a20696e73756666696369656e742062616c616e6365000000600082015250565b7f4e6f2065786368616e676520617574686f726974790000000000000000000000600082015250565b7f4f726465722069732063616e63656c6564000000000000000000000000000000600082015250565b7f45434453413a20696e76616c6964207369676e6174757265202776272076616c60008201527f7565000000000000000000000000000000000000000000000000000000000000602082015250565b7f4c656674206f72646572207369676e206572726f720000000000000000000000600082015250565b7f455243373231203a206261736541737365742e76616c756520213d2031000000600082015250565b7f54616b65722061737365742076616c7565206973206e6f74206d617463680000600082015250565b7f4f776e61626c653a2063616c6c6572206973206e6f7420746865206f776e6572600082015250565b7f4d616b65722061737365742076616c7565206973206e6f74206d617463680000600082015250565b50565b7f6261736541737365742e636f64652e6261736554797065206973206572726f72600082015250565b7f5269676874206f72646572207369676e206572726f7200000000000000000000600082015250565b7f54616b657220617373657420636f6465206973206e6f74206d61746368000000600082015250565b7f747261646520686173206265656e2066696e6973686564000000000000000000600082015250565b7f746865206f7264657220686173206265656e2063616e63656c65640000000000600082015250565b6005811061309c5761309b612b5d565b5b50565b600281106130b0576130af612b5d565b5b50565b600281106130c4576130c3612b5d565b5b50565b6130d0816129b4565b81146130db57600080fd5b50565b6130e7816129c6565b81146130f257600080fd5b50565b6005811061310257600080fd5b50565b6002811061311257600080fd5b50565b6002811061312257600080fd5b50565b61312e81612a35565b811461313957600080fd5b5056fea26469706673582212209f78986dfd0ca035e182594daf38b39fd199c28a9272bf90571f6932cd13d29064736f6c63430008030033",
  "linkReferences": {},
  "deployedLinkReferences": {}
}